:100000000C9462000C948A000C948A000C948A0070
:100010000C948A000C948A000C948A000C948A0038
:100020000C948A000C948A000C948A000C94C302ED
:100030000C948A000C948A000C948A000C948A0018
:100040000C9479020C948A000C9447020C942102BF
:100050000C948A000C948A000C948A000C948A00F8
:100060000C948A000C948A000000000023002600F3
:10007000290000000000240027002A0000000000E2
:10008000250028002B0004040404040404040202D4
:100090000202020203030303030301020408102007
:1000A0004080010204081020010204081020000012
:1000B0000008000201000003040700000000000027
:1000C00000003B0511241FBECFEFD8E0DEBFCDBF3F
:1000D00011E0A0E0B1E0E6E3FBE002C005900D9284
:1000E000A433B107D9F722E0A4E3B1E001C01D9227
:1000F000AC33B207E1F710E0C2E6D0E004C02197CC
:10010000FE010E948A05C136D107C9F70E94FE038D
:100110000C9499050C940000AF92BF92CF92DF929D
:10012000EF92FF920F931F93CF93DF936C017B01AC
:100130008B01040F151FEB015E01AE18BF08C0173D
:10014000D10759F06991D601ED91FC910190F081B0
:10015000E02DC6010995892B79F7C501DF91CF9173
:100160001F910F91FF90EF90DF90CF90BF90AF90D5
:100170000895FC01538D448D252F30E0842F90E0AD
:10018000821B930B541710F0CF9608950197089592
:10019000FC01918D828D981761F0A28DAE0FBF2F5B
:1001A000B11D5D968C91928D9F5F9F73928F90E0B1
:1001B00008958FEF9FEF0895FC01918D828D981720
:1001C00031F0828DE80FF11D858D90E008958FEF5D
:1001D0009FEF0895FC01918D228D892F90E0805C26
:1001E0009F4F821B91098F73992708958FE991E0A2
:1001F0000E94EA0021E0892B09F420E0822F089573
:1002000080E090E0892B29F00E94F60081110C9487
:1002100000000895FC01A48DA80FB92FB11DA35AA9
:10022000BF4F2C91848D90E001968F739927848F16
:10023000A689B7892C93A089B1898C918370806439
:100240008C93938D848D981306C00288F389E02DDA
:1002500080818F7D80830895EF92FF920F931F938B
:10026000CF93DF93EC0181E0888F9B8D8C8D981369
:100270001AC0E889F989808185FF15C09FB7F89475
:10028000EE89FF896083E889F989808183708064C1
:1002900080839FBF81E090E0DF91CF911F910F910C
:1002A000FF90EF900895F62E0B8D10E00F5F1F4F1B
:1002B0000F731127E02E8C8D8E110CC00FB607FC2A
:1002C000FACFE889F989808185FFF5CFCE010E94B8
:1002D0000A01F1CFEB8DEC0FFD2FF11DE35AFF4F1B
:1002E000F0829FB7F8940B8FEA89FB898081806246
:1002F000CFCFCF93DF93EC01888D8823B9F0AA8903
:10030000BB89E889F9898C9185FD03C0808186FDD0
:100310000DC00FB607FCF7CF8C9185FFF2CF80811F
:1003200085FFEDCFCE010E940A01E9CFDF91CF9189
:100330000895833081F028F4813099F08230A9F05B
:1003400008958730A9F08830C9F08430B1F48091E5
:1003500080008F7D03C0809180008F778093800024
:10036000089584B58F7784BD089584B58F7DFBCFC4
:100370008091B0008F778093B00008958091B00095
:100380008F7DF9CF1F93CF93DF93282F30E0F901B2
:10039000E255FF4F8491F901E656FF4FD491F901E0
:1003A000EA57FF4FC491CC23A9F0162F81110E9468
:1003B0009901EC2FF0E0EE0FFF1FE458FF4FA591DD
:1003C000B4918FB7F894EC91111108C0D095DE2349
:1003D000DC938FBFDF91CF911F910895DE2BF8CF73
:1003E000CF93DF9390E0FC01E656FF4F24918A57AC
:1003F0009F4FFC0184918823D1F090E0880F991FD2
:10040000FC01EE58FF4FA591B491FC01E458FF4F59
:10041000C591D49161110EC09FB7F8948C91E22FD1
:10042000E0958E238C932881E223E8839FBFDF91A0
:10043000CF9108958FB7F894EC91E22BEC938FBF96
:10044000F6CF1F920F920FB60F9211242F933F9366
:100450004F935F936F937F938F939F93AF93BF93CC
:10046000EF93FF938FE991E00E940A01FF91EF91D2
:10047000BF91AF919F918F917F916F915F914F91BC
:100480003F912F910F900FBE0F901F9018951F92C4
:100490000F920FB60F9211242F938F939F93EF9388
:1004A000FF93E091AF01F091B0018081E091B5013F
:1004B000F091B60182FD1BC090818091B8018F5FE1
:1004C0008F732091B901821741F0E091B801F0E0FB
:1004D000E156FE4F958F8093B801FF91EF919F9168
:1004E0008F912F910F900FBE0F901F9018958081C4
:1004F000F4CF1F920F920FB60F9211242F933F93B8
:100500008F939F93AF93BF93809147019091480140
:10051000A0914901B0914A013091460123E0230F97
:100520002D3758F50196A11DB11D209346018093EA
:10053000470190934801A0934901B0934A018091EB
:10054000420190914301A0914401B091450101966F
:10055000A11DB11D8093420190934301A0934401DA
:10056000B0934501BF91AF919F918F913F912F9192
:100570000F900FBE0F901F90189526E8230F02963C
:10058000A11DB11DD2CF1F920F920FB60F92112451
:100590001F932F933F934F935F936F937F938F930B
:1005A0009F93AF93BF93CF93DF93EF93FF931091FC
:1005B0004C01112339F180914101811123C0209117
:1005C000000130E0F901E255FF4F8491F901E65650
:1005D000FF4FD491F901EA57FF4FC491CC2379F032
:1005E00081110E949901EC2FF0E0EE0FFF1FE859F6
:1005F000FF4FA591B491EC91DE2381E009F480E0F6
:1006000080934001809141018823D9F080913F017E
:1006100091E0980F90933F01811113C060E08AE050
:100620000E94C20160E08CE00E94C2011092410170
:1006300080913D0190913E01019690933E018093FF
:100640003D0180913F01883010F010923F0111234D
:1006500009F492C08091410181118EC090914001B6
:10066000992329F080913C018F5F80933C01809118
:100670003A0120913B01921709F44AC02BE08035E2
:1006800008F02DE1820F80933A0190933B01209175
:100690003A01203A08F470C08091380190913901F4
:1006A00096958795909339018093380130913C015C
:1006B000353028F098609093390180933801205AA2
:1006C00020933A0110923C0180914B01882309F458
:1006D00084C0809137018F5F809337018C3008F49C
:1006E0004BC08091380190913901382F3F73232FEF
:1006F00026952695287048E0420F421769F0E22FB0
:10070000F0E0E15FFE4F5081351739F02F5FF5CFF4
:100710008C5E80933A01BBCF20E040E1249F9001A2
:10072000112436E0969587953A95E1F7482F9595EF
:10073000879595958795887098E0980F981749F058
:10074000E82FF0E0E15FFE4F5081451719F08F5F11
:10075000F5CF80E0822B90919D01911121C0809373
:1007600036019CEF980F9D34D8F010924B01809188
:1007700035018F5F80933501FF91EF91DF91CF912C
:10078000BF91AF919F918F917F916F915F914F91A9
:100790003F912F911F910F900FBE0F901F901895B2
:1007A000E0919D0191E09E0F90939D01F0E0E35B4D
:1007B000FE4F808390919D0180913601981750F0F3
:1007C00010924B01809134018F5F8093340181E05E
:1007D00080939E0110923701CFCF80913801909184
:1007E000390188339B4041F681E080934B011092A0
:1007F000370110929D0110929E01BECFCF93DF93DF
:10080000CDB7DEB7C055D1090FB6F894DEBF0FBE25
:10081000CDBF789484B5826084BD84B5816084BD89
:1008200085B5826085BD85B5816085BD80916E008E
:10083000816080936E0010928100809181008260BF
:1008400080938100809181008160809381008091FC
:1008500080008160809380008091B10084608093EB
:10086000B1008091B00081608093B00080917A00E7
:10087000846080937A0080917A00826080937A000D
:1008800080917A00816080937A0080917A008068FC
:1008900080937A001092C1008CE0809300018EE07A
:1008A000E1E0F1E0DE01119601900D928A95E1F709
:1008B0007E0123E0E20EF11C11E0812C84E2982EEF
:1008C00084EFA82EB12C412C9DE7592E612C712C60
:1008D000F701219131917F0150E040E0C501B40161
:1008E0000E946805CA01B901A30192010E9468052E
:1008F000223031054105510508F095C01F5F1730C2
:1009000039F7E091AF01F091B00182E08083E0918E
:10091000AB01F091AC011082E091AD01F091AE011C
:100920008FEC80831092B701E091B301F091B40194
:1009300086E08083E091B101F091B2018081806115
:100940008083E091B101F091B20180818860808361
:10095000E091B101F091B201808180688083E091E3
:10096000B101F091B20180818F7D808361E08DE0E3
:100970000E94F00180914C01811105C081E08093BB
:100980004C0110924B0100E010E042E050E061E3C6
:1009900071E08FE991E00E948C0080919E01882394
:1009A00009F435C040919D014350403508F040E5C1
:1009B00050E06EE471E0CE0101960E949005109225
:1009C0009E0120919D01EDE4F1E08FEF9FEF21501A
:1009D00098F031918327082E8295807F8025092EFB
:1009E000982F82958F700826869598278927880FDB
:1009F000880F880F8025EBCF883B904F41F4898189
:100A000061E0813309F060E08DE00E94C2010115D0
:100A1000110509F4BACF0E94F600882309F4B5CF76
:100A20000E940000B2CF163009F46BCF1092800004
:100A300088E08093810080918100182B10938100C1
:100A4000309389002093880080916F0082608093AA
:100A50006F0061E08CE00E94F00160E08091000195
:100A60000E94F00161E08AE00E94F00160E08AE00B
:100A70000E94C20146CFEFE9F1E01382128288EEB4
:100A800093E0A0E0B0E084839583A683B78383E2FC
:100A900091E09183808385EC90E09587848784EC56
:100AA00090E09787868780EC90E0918B808B81EC3B
:100AB00090E0938B828B82EC90E0958B848B86EC1C
:100AC00090E0978B868B118E128E138E148E089564
:100AD000A1E21A2EAA1BBB1BFD010DC0AA1FBB1F42
:100AE000EE1FFF1FA217B307E407F50720F0A21BB4
:100AF000B30BE40BF50B661F771F881F991F1A9421
:100B000069F760957095809590959B01AC01BD014A
:100B1000CF010895EE0FFF1F0590F491E02D099489
:100B2000FB01DC0102C001900D9241505040D8F70A
:060B30000895F894FFCFC8
:100B36000B000001000800400000010004050D0D37
:100B46000E131516191A1C232526292A2C323400B1
:100B56000000002C018C00B9007901EA00C800DC15
:040B6600000D0A0074
:00000001FF
