:100000000C9462000C948A000C948A000C948A0070
:100010000C948A000C948A000C948A000C948A0038
:100020000C948A000C948A000C948A000C94890326
:100030000C948A000C948A000C948A000C948A0018
:100040000C943F030C948A000C940D030C94E7026B
:100050000C948A000C948A000C948A000C948A00F8
:100060000C948A000C948A000000000024002700F1
:100070002A0000000000250028002B0000000000DE
:1000800023002600290004040404040404040202DA
:100090000202020203030303030301020408102007
:1000A0004080010204081020010204081020000012
:1000B0000008000201000003040700000000000027
:1000C0000000600511241FBECFEFD8E0DEBFCDBF1A
:1000D00011E0A0E0B1E0EEE6FBE002C005900D9279
:1000E000A03EB107D9F722E0A0EEB1E001C01D9219
:1000F000A339B207E1F710E0C2E6D0E004C02197CF
:10010000FE010E94AF05C136D107C9F70E94FB036B
:100110000C94B5050C940000AF92BF92CF92DF9281
:10012000EF92FF920F931F93CF93DF936C017B01AC
:100130008B01040F151FEB015E01AE18BF08C0173D
:10014000D10759F06991D601ED91FC910190F081B0
:10015000E02DC6010995892B79F7C501DF91CF9173
:100160001F910F91FF90EF90DF90CF90BF90AF90D5
:100170000895FC01538D448D252F30E0842F90E0AD
:10018000821B930B541710F0CF9608950197089592
:10019000FC01918D828D981761F0A28DAE0FBF2F5B
:1001A000B11D5D968C91928D9F5F9F73928F90E0B1
:1001B00008958FEF9FEF0895FC01918D828D981720
:1001C00031F0828DE80FF11D858D90E008958FEF5D
:1001D0009FEF0895FC01918D228D892F90E0805C26
:1001E0009F4F821B91098F73992708958DEE91E09F
:1001F0000E94EA0021E0892B09F420E0822F089573
:1002000080E090E0892B29F00E94F60081110C9487
:1002100000000895FC01A48DA80FB92FB11DA35AA9
:10022000BF4F2C91848D90E001968F739927848F16
:10023000A689B7892C93A089B1898C918370806439
:100240008C93938D848D981306C00288F389E02DDA
:1002500080818F7D80830895EF92FF920F931F938B
:10026000CF93DF93EC0181E0888F9B8D8C8D981369
:100270001AC0E889F989808185FF15C09FB7F89475
:10028000EE89FF896083E889F989808183708064C1
:1002900080839FBF81E090E0DF91CF911F910F910C
:1002A000FF90EF900895F62E0B8D10E00F5F1F4F1B
:1002B0000F731127E02E8C8D8E110CC00FB607FC2A
:1002C000FACFE889F989808185FFF5CFCE010E94B8
:1002D0000A01F1CFEB8DEC0FFD2FF11DE35AFF4F1B
:1002E000F0829FB7F8940B8FEA89FB898081806246
:1002F000CFCFCF93DF93EC01888D8823B9F0AA8903
:10030000BB89E889F9898C9185FD03C0808186FDD0
:100310000DC00FB607FCF7CF8C9185FFF2CF80811F
:1003200085FFEDCFCE010E940A01E9CFDF91CF9189
:100330000895833081F028F4813099F08230A9F05B
:1003400008958730A9F08830C9F08430B1F48091E5
:1003500080008F7D03C0809180008F778093800024
:10036000089584B58F7784BD089584B58F7DFBCFC4
:100370008091B0008F778093B00008958091B00095
:100380008F7DF9CFCF93DF93282F30E0F901E2552D
:10039000FF4F8491F901E656FF4FD491F901EA57D6
:1003A000FF4FC491CC23A1F081110E949901EC2F41
:1003B000F0E0EE0FFF1FE458FF4FA591B491EC91D0
:1003C000ED2381E090E009F480E0DF91CF91089582
:1003D00080E090E0FACF1F93CF93DF93282F30E097
:1003E000F901E255FF4F8491F901E656FF4FD49190
:1003F000F901EA57FF4FC491CC23A9F0162F8111C0
:100400000E949901EC2FF0E0EE0FFF1FEE58FF4F16
:10041000A591B4918FB7F894EC91111108C0D095C3
:10042000DE23DC938FBFDF91CF911F910895DE2BE8
:10043000F8CFCF93DF9390E0FC01E656FF4F249175
:100440008A579F4FFC0184918823D1F090E0880F58
:10045000991FFC01E859FF4FA591B491FC01EE589A
:10046000FF4FC591D49161110EC09FB7F8948C9144
:10047000E22FE0958E238C932881E223E8839FBFAF
:10048000DF91CF9108958FB7F894EC91E22BEC9324
:100490008FBFF6CF3FB7F8948091E9019091EA01C0
:1004A000A091EB01B091EC0126B5A89B05C02F3FB0
:1004B00019F00196A11DB11D3FBFBA2FA92F982F8A
:1004C0008827BC01CD01620F711D811D911D42E085
:1004D000660F771F881F991F4A95D1F708958627C1
:1004E000082E8295807F8025092E982F82958F7007
:1004F0000826869598278927880F880F880F8025DA
:100500000895CF93DF93EC01809191028111FCCF8C
:1005100064E08FEF9FEF0E946F022DE020930901AE
:1005200026E120930A0168810E946F02E881F0E0D1
:1005300024E0F595E7952A95E1F7E753FE4F2081F2
:1005400020930B01E881EF70F0E0E753FE4F20812C
:1005500020930C0180959095FC0134E0F695E79589
:100560003A95E1F7EF70FF27E753FE4F2081209384
:100570000D01FC01EF70FF27E753FE4F2081209310
:100580000E01FC01EF2FFF27E295EF70E753FE4FBE
:10059000208120930F01E92FFF27EF70FF27E753FA
:1005A000FE4F80818093100180E18093920210922F
:1005B000900210928F0210928E0261E08AE00E94F7
:1005C000EB0181E080939102DF91CF9108951F921A
:1005D0000F920FB60F9211242F933F934F935F9377
:1005E0006F937F938F939F93AF93BF93EF93FF93FB
:1005F0008DEE91E00E940A01FF91EF91BF91AF91C2
:100600009F918F917F916F915F914F913F912F912A
:100610000F900FBE0F901F9018951F920F920FB65C
:100620000F9211242F938F939F93EF93FF93E09159
:10063000FD01F091FE018081E0910302F09104023E
:1006400082FD1BC09081809106028F5F8F73209185
:100650000702821741F0E0910602F0E0E351FE4FFD
:10066000958F80930602FF91EF919F918F912F912B
:100670000F900FBE0F901F9018958081F4CF1F929E
:100680000F920FB60F9211242F933F938F939F9346
:10069000AF93BF938091E5019091E601A091E701AE
:1006A000B091E8013091E40123E0230F2D3758F594
:1006B0000196A11DB11D2093E4018093E501909363
:1006C000E601A093E701B093E8018091E9019091E0
:1006D000EA01A091EB01B091EC010196A11DB11DC1
:1006E0008093E9019093EA01A093EB01B093EC01B0
:1006F000BF91AF919F918F913F912F910F900FBE1E
:100700000F901F90189526E8230F0296A11DB11D8A
:10071000D2CF1F920F920FB60F9211241F932F93D7
:100720003F934F935F936F937F938F939F93AF9379
:10073000BF93CF93DF93EF93FF9380919102882330
:1007400019F180918E0291E0980F90938E028111A1
:100750001BC0C09190021091000180919202C817B5
:1007600068F160E08AE00E94EB0160E0812F0E9466
:10077000EB01109291028091E2019091E3010196C8
:100780009093E3018093E20180918E02883010F013
:1007900010928E02FF91EF91DF91CF91BF91AF91B7
:1007A0009F918F917F916F915F914F913F912F9189
:1007B0001F910F900FBE0F901F901895EC2FF0E037
:1007C000EF5FFE4F608120918F02D1E0D20FD09376
:1007D0008F0281E090E001C0880F2A95EAF7682334
:1007E000812F0E94EB01D630A8F210928F02CF5FCA
:1007F000C0939002C9CFCF93DF93CDB7DEB72E97CA
:100800000FB6F894DEBF0FBECDBF789484B582607A
:1008100084BD84B5816084BD85B5826085BD85B5A4
:10082000816085BD80916E00816080936E00109222
:10083000810080918100826080938100809181009D
:10084000816080938100809180008160809380002E
:100850008091B10084608093B1008091B00081608C
:100860008093B00080917A00846080937A008091B8
:100870007A00826080937A0080917A008160809310
:100880007A0080917A00806880937A001092C1008B
:10089000E091FD01F091FE0182E08083E091F90199
:1008A000F091FA011082E091FB01F091FC018FECD4
:1008B000808310920502E0910102F091020286E02D
:1008C0008083E091FF01F09100028081806180834C
:1008D000E091FF01F0910002808188608083E091C7
:1008E000FF01F0910002808180688083E091FF0128
:1008F000F091000280818F7D808360E082E00E9421
:10090000190261E08DE00E9419028CE080930001E1
:100910008EE0E9EAF1E0DE01119601900D928A95F0
:10092000E1F77E0123E0E20EF11C11E0812C34E2BC
:10093000932E34EFA32EB12C412C4DE7542E612C75
:10094000712CF701219131917F0150E040E0C50108
:10095000B4010E948D05CA01B901A30192010E9450
:100960008D05223031054105510508F081C01F5F1A
:10097000173039F70E944A024B015C0124E6C22E6F
:10098000D12CE12CF12C0E944A02681979098A09BC
:100990009B09683E734081059105A8F3F1E0CF1AE9
:1009A000D108E108F10828EE820E23E0921EA11C76
:1009B000B11CC114D104E104F10429F700E010E0F6
:1009C0008EEDE82E81E0F82E9CEDC92E91E0D92E17
:1009D00082E00E94C20190938D0280938C0260910C
:1009E0008A0270918B026115710561F0FB01019023
:1009F0000020E9F73197AF01461B570B8DEE91E0D0
:100A00000E948C0042E050E069ED71E08DEE91E0D3
:100A10000E948C0080918C0290918D020197D1F4FC
:100A2000D0928B02C0928A028CED91E00E948102EA
:100A3000809191028111FCCF60E08DE00E94EB017A
:100A40000115110529F20E94F600882309F20E947F
:100A50000000BECFF0928B02E0928A028EED91E010
:100A60000E948102809191028111FCCF61E0E5CF6B
:100A7000163009F47FCF1092800088E080938100C7
:100A800080918100182B109381003093890020936E
:100A9000880080916F00826080936F0061E0809198
:100AA00000010E94190260E08BE00E94190261E0DF
:100AB0008AE00E94190260E08AE00E94EB015ACFAE
:100AC000EDEEF1E01382128288EE93E0A0E0B0E058
:100AD00084839583A683B7838BEB91E09183808396
:100AE00085EC90E09587848784EC90E097878687F3
:100AF00080EC90E0918B808B81EC90E0938B828BEB
:100B000082EC90E0958B848B86EC90E0978B868BC3
:100B1000118E128E138E148E0895A1E21A2EAA1B26
:100B2000BB1BFD010DC0AA1FBB1FEE1FFF1FA2179D
:100B3000B307E407F50720F0A21BB30BE40BF50B9A
:100B4000661F771F881F991F1A9469F76095709523
:100B5000809590959B01AC01BD01CF010895EE0FEA
:0E0B6000FF1F0590F491E02D0994F894FFCF4B
:100B6E000C2A2A2A2A2A2A382C000000000000000B
:100B7E000000000000000000000000000000000067
:100B8E000000000000000000000000000000000057
:100B9E000000000000000000000000000000000047
:100BAE000000000000000000000000000000000037
:100BBE000000000000000000000000000000000027
:100BCE000000000000000000000000000000000017
:100BDE000000000000000000000000000000000007
:100BEE0000000000000000000000000000000000F7
:100BFE0000000000000000000000000000000000E7
:100C0E00000000000000000000000001000800408D
:100C1E000000010004050D000000002C018C00B93D
:100C2E00007901EA00C800DC000D0E131516191A22
:100C3E001C232526292A2C32340D0A0031003000BF
:00000001FF
